{
  "_format": "hh-sol-artifact-1",
  "contractName": "ArtistRegistry",
  "sourceName": "contracts/ArtistRegistry.sol",
  "abi": [
    {
      "anonymous": false,
      "inputs": [
        {
          "indexed": true,
          "internalType": "string",
          "name": "spotifyId",
          "type": "string"
        },
        {
          "indexed": false,
          "internalType": "address",
          "name": "memecoinAddress",
          "type": "address"
        }
      ],
      "name": "ArtistRegistered",
      "type": "event"
    },
    {
      "inputs": [
        {
          "internalType": "string",
          "name": "spotifyId",
          "type": "string"
        }
      ],
      "name": "addFees",
      "outputs": [],
      "stateMutability": "payable",
      "type": "function"
    },
    {
      "inputs": [
        {
          "internalType": "string",
          "name": "",
          "type": "string"
        }
      ],
      "name": "artists",
      "outputs": [
        {
          "internalType": "address",
          "name": "memecoinAddress",
          "type": "address"
        },
        {
          "internalType": "uint256",
          "name": "accumulatedFees",
          "type": "uint256"
        }
      ],
      "stateMutability": "view",
      "type": "function"
    },
    {
      "inputs": [
        {
          "internalType": "string",
          "name": "spotifyId",
          "type": "string"
        }
      ],
      "name": "getArtistFees",
      "outputs": [
        {
          "internalType": "uint256",
          "name": "",
          "type": "uint256"
        }
      ],
      "stateMutability": "view",
      "type": "function"
    },
    {
      "inputs": [
        {
          "internalType": "string",
          "name": "spotifyId",
          "type": "string"
        },
        {
          "internalType": "string",
          "name": "name",
          "type": "string"
        },
        {
          "internalType": "string",
          "name": "symbol",
          "type": "string"
        }
      ],
      "name": "registerArtist",
      "outputs": [],
      "stateMutability": "nonpayable",
      "type": "function"
    },
    {
      "inputs": [
        {
          "internalType": "string",
          "name": "spotifyId",
          "type": "string"
        }
      ],
      "name": "withdrawFees",
      "outputs": [],
      "stateMutability": "nonpayable",
      "type": "function"
    }
  ],
  "bytecode": "0x608060405234801561001057600080fd5b5061366d806100206000396000f3fe6080604052600436106200004f5760003560e01c80627fedfe146200005457806333a49b7914620000825780633790b69614620000c65780636b9b94ac14620000f45780638270dc021462000139575b600080fd5b3480156200006157600080fd5b506200008060048036038101906200007a919062000727565b62000159565b005b3480156200008f57600080fd5b50620000ae6004803603810190620000a8919062000727565b6200023a565b604051620000bd919062000793565b60405180910390f35b348015620000d357600080fd5b50620000f26004803603810190620000ec9190620007b0565b62000266565b005b3480156200010157600080fd5b506200012060048036038101906200011a919062000727565b62000455565b60405162000130929190620008ae565b60405180910390f35b62000157600480360381019062000151919062000727565b620004af565b005b600080826040516200016c919062000954565b908152602001604051809103902060010154905060008111620001c6576040517f08c379a0000000000000000000000000000000000000000000000000000000008152600401620001bd90620009ce565b60405180910390fd5b60008083604051620001d9919062000954565b9081526020016040518091039020600101819055503373ffffffffffffffffffffffffffffffffffffffff166108fc829081150290604051600060405180830381858888f1935050505015801562000235573d6000803e3d6000fd5b505050565b600080826040516200024d919062000954565b9081526020016040518091039020600101549050919050565b600073ffffffffffffffffffffffffffffffffffffffff1660008460405162000290919062000954565b908152602001604051809103902060000160009054906101000a900473ffffffffffffffffffffffffffffffffffffffff1673ffffffffffffffffffffffffffffffffffffffff16146200031b576040517f08c379a0000000000000000000000000000000000000000000000000000000008152600401620003129062000a40565b60405180910390fd5b6000828230866040516200032f90620005a3565b6200033e949392919062000aa3565b604051809103906000f0801580156200035b573d6000803e3d6000fd5b50905060405180604001604052808273ffffffffffffffffffffffffffffffffffffffff16815260200160008152506000856040516200039c919062000954565b908152602001604051809103902060008201518160000160006101000a81548173ffffffffffffffffffffffffffffffffffffffff021916908373ffffffffffffffffffffffffffffffffffffffff16021790555060208201518160010155905050836040516200040e919062000954565b60405180910390207f3d29da7fef11a3d9e7980c76d39c19e6bd3c33cf9f32c9569f856267bbdeedfd8260405162000447919062000b05565b60405180910390a250505050565b6000818051602081018201805184825260208301602085012081835280955050505050506000915090508060000160009054906101000a900473ffffffffffffffffffffffffffffffffffffffff16908060010154905082565b600073ffffffffffffffffffffffffffffffffffffffff16600082604051620004d9919062000954565b908152602001604051809103902060000160009054906101000a900473ffffffffffffffffffffffffffffffffffffffff1673ffffffffffffffffffffffffffffffffffffffff160362000564576040517f08c379a00000000000000000000000000000000000000000000000000000000081526004016200055b9062000b72565b60405180910390fd5b3460008260405162000577919062000954565b9081526020016040518091039020600101600082825462000599919062000bc3565b9250508190555050565b612a398062000bff83390190565b6000604051905090565b600080fd5b600080fd5b600080fd5b600080fd5b6000601f19601f8301169050919050565b7f4e487b7100000000000000000000000000000000000000000000000000000000600052604160045260246000fd5b6200061a82620005cf565b810181811067ffffffffffffffff821117156200063c576200063b620005e0565b5b80604052505050565b600062000651620005b1565b90506200065f82826200060f565b919050565b600067ffffffffffffffff821115620006825762000681620005e0565b5b6200068d82620005cf565b9050602081019050919050565b82818337600083830152505050565b6000620006c0620006ba8462000664565b62000645565b905082815260208101848484011115620006df57620006de620005ca565b5b620006ec8482856200069a565b509392505050565b600082601f8301126200070c576200070b620005c5565b5b81356200071e848260208601620006a9565b91505092915050565b60006020828403121562000740576200073f620005bb565b5b600082013567ffffffffffffffff811115620007615762000760620005c0565b5b6200076f84828501620006f4565b91505092915050565b6000819050919050565b6200078d8162000778565b82525050565b6000602082019050620007aa600083018462000782565b92915050565b600080600060608486031215620007cc57620007cb620005bb565b5b600084013567ffffffffffffffff811115620007ed57620007ec620005c0565b5b620007fb86828701620006f4565b935050602084013567ffffffffffffffff8111156200081f576200081e620005c0565b5b6200082d86828701620006f4565b925050604084013567ffffffffffffffff811115620008515762000850620005c0565b5b6200085f86828701620006f4565b9150509250925092565b600073ffffffffffffffffffffffffffffffffffffffff82169050919050565b6000620008968262000869565b9050919050565b620008a88162000889565b82525050565b6000604082019050620008c560008301856200089d565b620008d4602083018462000782565b9392505050565b600081519050919050565b600081905092915050565b60005b8381101562000911578082015181840152602081019050620008f4565b60008484015250505050565b60006200092a82620008db565b620009368185620008e6565b935062000948818560208601620008f1565b80840191505092915050565b60006200096282846200091d565b915081905092915050565b600082825260208201905092915050565b7f4e6f206665657320746f20776974686472617700000000000000000000000000600082015250565b6000620009b66013836200096d565b9150620009c3826200097e565b602082019050919050565b60006020820190508181036000830152620009e981620009a7565b9050919050565b7f41727469737420616c7265616479207265676973746572656400000000000000600082015250565b600062000a286019836200096d565b915062000a3582620009f0565b602082019050919050565b6000602082019050818103600083015262000a5b8162000a19565b9050919050565b600062000a6f82620008db565b62000a7b81856200096d565b935062000a8d818560208601620008f1565b62000a9881620005cf565b840191505092915050565b6000608082019050818103600083015262000abf818762000a62565b9050818103602083015262000ad5818662000a62565b905062000ae660408301856200089d565b818103606083015262000afa818462000a62565b905095945050505050565b600060208201905062000b1c60008301846200089d565b92915050565b7f417274697374206e6f7420726567697374657265640000000000000000000000600082015250565b600062000b5a6015836200096d565b915062000b678262000b22565b602082019050919050565b6000602082019050818103600083015262000b8d8162000b4b565b9050919050565b7f4e487b7100000000000000000000000000000000000000000000000000000000600052601160045260246000fd5b600062000bd08262000778565b915062000bdd8362000778565b925082820190508082111562000bf85762000bf762000b94565b5b9291505056fe60806040523480156200001157600080fd5b5060405162002a3938038062002a39833981810160405281019062000037919062000402565b33848481600390816200004b91906200071c565b5080600490816200005d91906200071c565b505050600073ffffffffffffffffffffffffffffffffffffffff168173ffffffffffffffffffffffffffffffffffffffff1603620000d55760006040517f1e4fbdf7000000000000000000000000000000000000000000000000000000008152600401620000cc919062000814565b60405180910390fd5b620000e6816200014460201b60201c565b5081600660006101000a81548173ffffffffffffffffffffffffffffffffffffffff021916908373ffffffffffffffffffffffffffffffffffffffff16021790555080600790816200013991906200071c565b505050505062000831565b6000600560009054906101000a900473ffffffffffffffffffffffffffffffffffffffff16905081600560006101000a81548173ffffffffffffffffffffffffffffffffffffffff021916908373ffffffffffffffffffffffffffffffffffffffff1602179055508173ffffffffffffffffffffffffffffffffffffffff168173ffffffffffffffffffffffffffffffffffffffff167f8be0079c531659141344cd1fd0a4f28419497f9722a3daafe3b4186f6b6457e060405160405180910390a35050565b6000604051905090565b600080fd5b600080fd5b600080fd5b600080fd5b6000601f19601f8301169050919050565b7f4e487b7100000000000000000000000000000000000000000000000000000000600052604160045260246000fd5b620002738262000228565b810181811067ffffffffffffffff8211171562000295576200029462000239565b5b80604052505050565b6000620002aa6200020a565b9050620002b8828262000268565b919050565b600067ffffffffffffffff821115620002db57620002da62000239565b5b620002e68262000228565b9050602081019050919050565b60005b8381101562000313578082015181840152602081019050620002f6565b60008484015250505050565b6000620003366200033084620002bd565b6200029e565b90508281526020810184848401111562000355576200035462000223565b5b62000362848285620002f3565b509392505050565b600082601f8301126200038257620003816200021e565b5b8151620003948482602086016200031f565b91505092915050565b600073ffffffffffffffffffffffffffffffffffffffff82169050919050565b6000620003ca826200039d565b9050919050565b620003dc81620003bd565b8114620003e857600080fd5b50565b600081519050620003fc81620003d1565b92915050565b600080600080608085870312156200041f576200041e62000214565b5b600085015167ffffffffffffffff81111562000440576200043f62000219565b5b6200044e878288016200036a565b945050602085015167ffffffffffffffff81111562000472576200047162000219565b5b62000480878288016200036a565b93505060406200049387828801620003eb565b925050606085015167ffffffffffffffff811115620004b757620004b662000219565b5b620004c5878288016200036a565b91505092959194509250565b600081519050919050565b7f4e487b7100000000000000000000000000000000000000000000000000000000600052602260045260246000fd5b600060028204905060018216806200052457607f821691505b6020821081036200053a5762000539620004dc565b5b50919050565b60008190508160005260206000209050919050565b60006020601f8301049050919050565b600082821b905092915050565b600060088302620005a47fffffffffffffffffffffffffffffffffffffffffffffffffffffffffffffffff8262000565565b620005b0868362000565565b95508019841693508086168417925050509392505050565b6000819050919050565b6000819050919050565b6000620005fd620005f7620005f184620005c8565b620005d2565b620005c8565b9050919050565b6000819050919050565b6200061983620005dc565b62000631620006288262000604565b84845462000572565b825550505050565b600090565b6200064862000639565b620006558184846200060e565b505050565b5b818110156200067d57620006716000826200063e565b6001810190506200065b565b5050565b601f821115620006cc57620006968162000540565b620006a18462000555565b81016020851015620006b1578190505b620006c9620006c08562000555565b8301826200065a565b50505b505050565b600082821c905092915050565b6000620006f160001984600802620006d1565b1980831691505092915050565b60006200070c8383620006de565b9150826002028217905092915050565b6200072782620004d1565b67ffffffffffffffff81111562000743576200074262000239565b5b6200074f82546200050b565b6200075c82828562000681565b600060209050601f8311600181146200079457600084156200077f578287015190505b6200078b8582620006fe565b865550620007fb565b601f198416620007a48662000540565b60005b82811015620007ce57848901518255600182019150602085019450602081019050620007a7565b86831015620007ee5784890151620007ea601f891682620006de565b8355505b6001600288020188555050505b505050505050565b6200080e81620003bd565b82525050565b60006020820190506200082b600083018462000803565b92915050565b6121f880620008416000396000f3fe6080604052600436106101295760003560e01c8063715018a6116100ab578063abb1dc441161006f578063abb1dc44146103d1578063d0febe4c14610402578063d2d8cb671461040c578063d7df286c14610437578063dd62ed3e14610462578063f2fde38b1461049f57610129565b8063715018a6146102fc57806381703be7146103135780638da5cb5b1461033e57806395d89b4114610369578063a9059cbb1461039457610129565b8063313ce567116100f2578063313ce5671461022957806332cb6b0c146102545780633ccfd60b1461027f5780636c11bcd31461029657806370a08231146102bf57610129565b80620b46f81461012e57806306fdde0314610159578063095ea7b31461018457806318160ddd146101c157806323b872dd146101ec575b600080fd5b34801561013a57600080fd5b506101436104c8565b604051610150919061186b565b60405180910390f35b34801561016557600080fd5b5061016e6104cd565b60405161017b9190611916565b60405180910390f35b34801561019057600080fd5b506101ab60048036038101906101a691906119c7565b61055f565b6040516101b89190611a22565b60405180910390f35b3480156101cd57600080fd5b506101d6610582565b6040516101e3919061186b565b60405180910390f35b3480156101f857600080fd5b50610213600480360381019061020e9190611a3d565b61058c565b6040516102209190611a22565b60405180910390f35b34801561023557600080fd5b5061023e6105bb565b60405161024b9190611aac565b60405180910390f35b34801561026057600080fd5b506102696105c4565b604051610276919061186b565b60405180910390f35b34801561028b57600080fd5b506102946105d2565b005b3480156102a257600080fd5b506102bd60048036038101906102b89190611ac7565b61062a565b005b3480156102cb57600080fd5b506102e660048036038101906102e19190611af4565b6108b2565b6040516102f3919061186b565b60405180910390f35b34801561030857600080fd5b506103116108fa565b005b34801561031f57600080fd5b5061032861090e565b6040516103359190611b30565b60405180910390f35b34801561034a57600080fd5b50610353610934565b6040516103609190611b30565b60405180910390f35b34801561037557600080fd5b5061037e61095e565b60405161038b9190611916565b60405180910390f35b3480156103a057600080fd5b506103bb60048036038101906103b691906119c7565b6109f0565b6040516103c89190611a22565b60405180910390f35b3480156103dd57600080fd5b506103e6610a13565b6040516103f99796959493929190611b4b565b60405180910390f35b61040a610c68565b005b34801561041857600080fd5b50610421610ebc565b60405161042e919061186b565b60405180910390f35b34801561044357600080fd5b5061044c610ec7565b6040516104599190611916565b60405180910390f35b34801561046e57600080fd5b5061048960048036038101906104849190611bcf565b610f55565b604051610496919061186b565b60405180910390f35b3480156104ab57600080fd5b506104c660048036038101906104c19190611af4565b610fdc565b005b600581565b6060600380546104dc90611c3e565b80601f016020809104026020016040519081016040528092919081815260200182805461050890611c3e565b80156105555780601f1061052a57610100808354040283529160200191610555565b820191906000526020600020905b81548152906001019060200180831161053857829003601f168201915b5050505050905090565b60008061056a611062565b905061057781858561106a565b600191505092915050565b6000600254905090565b600080610597611062565b90506105a485828561107c565b6105af858585611111565b60019150509392505050565b60006012905090565b69d3c21bcecceda100000081565b6105da611205565b6105e2610934565b73ffffffffffffffffffffffffffffffffffffffff166108fc479081150290604051600060405180830381858888f19350505050158015610627573d6000803e3d6000fd5b50565b6000811161066d576040517f08c379a000000000000000000000000000000000000000000000000000000000815260040161066490611cbb565b60405180910390fd5b80610677336108b2565b10156106b8576040517f08c379a00000000000000000000000000000000000000000000000000000000081526004016106af90611d27565b60405180910390fd5b600066038d7ea4c68000826106cd9190611d76565b9050600060646005836106e09190611d76565b6106ea9190611de7565b9050600081836106fa9190611e18565b9050610706338561128c565b3373ffffffffffffffffffffffffffffffffffffffff166108fc829081150290604051600060405180830381858888f1935050505015801561074c573d6000803e3d6000fd5b506000600660009054906101000a900473ffffffffffffffffffffffffffffffffffffffff1673ffffffffffffffffffffffffffffffffffffffff1683600760405160240161079b9190611ee5565b6040516020818303038152906040527f8270dc02000000000000000000000000000000000000000000000000000000007bffffffffffffffffffffffffffffffffffffffffffffffffffffffff19166020820180517bffffffffffffffffffffffffffffffffffffffffffffffffffffffff83818316178352505050506040516108259190611f4e565b60006040518083038185875af1925050503d8060008114610862576040519150601f19603f3d011682016040523d82523d6000602084013e610867565b606091505b50509050806108ab576040517f08c379a00000000000000000000000000000000000000000000000000000000081526004016108a290611fb1565b60405180910390fd5b5050505050565b60008060008373ffffffffffffffffffffffffffffffffffffffff1673ffffffffffffffffffffffffffffffffffffffff168152602001908152602001600020549050919050565b610902611205565b61090c600061130e565b565b600660009054906101000a900473ffffffffffffffffffffffffffffffffffffffff1681565b6000600560009054906101000a900473ffffffffffffffffffffffffffffffffffffffff16905090565b60606004805461096d90611c3e565b80601f016020809104026020016040519081016040528092919081815260200182805461099990611c3e565b80156109e65780601f106109bb576101008083540402835291602001916109e6565b820191906000526020600020905b8154815290600101906020018083116109c957829003601f168201915b5050505050905090565b6000806109fb611062565b9050610a08818585611111565b600191505092915050565b606080600080600060606000806000600660009054906101000a900473ffffffffffffffffffffffffffffffffffffffff1673ffffffffffffffffffffffffffffffffffffffff166007604051602401610a6d9190611ee5565b6040516020818303038152906040527f33a49b79000000000000000000000000000000000000000000000000000000007bffffffffffffffffffffffffffffffffffffffffffffffffffffffff19166020820180517bffffffffffffffffffffffffffffffffffffffffffffffffffffffff8381831617835250505050604051610af79190611f4e565b600060405180830381855afa9150503d8060008114610b32576040519150601f19603f3d011682016040523d82523d6000602084013e610b37565b606091505b509150915081610b7c576040517f08c379a0000000000000000000000000000000000000000000000000000000008152600401610b739061201d565b60405180910390fd5b600081806020019051810190610b929190612052565b9050610b9c6104cd565b610ba461095e565b610bac610582565b69d3c21bcecceda100000066038d7ea4c68000600786818054610bce90611c3e565b80601f0160208091040260200160405190810160405280929190818152602001828054610bfa90611c3e565b8015610c475780601f10610c1c57610100808354040283529160200191610c47565b820191906000526020600020905b815481529060010190602001808311610c2a57829003601f168201915b50505050509150995099509950995099509950995050505090919293949596565b60003411610cab576040517f08c379a0000000000000000000000000000000000000000000000000000000008152600401610ca2906120cb565b60405180910390fd5b60006064600534610cbc9190611d76565b610cc69190611de7565b905060008134610cd69190611e18565b9050600066038d7ea4c6800082610ced9190611de7565b905069d3c21bcecceda100000081610d03610582565b610d0d91906120eb565b1115610d4e576040517f08c379a0000000000000000000000000000000000000000000000000000000008152600401610d459061216b565b60405180910390fd5b610d5833826113d4565b6000600660009054906101000a900473ffffffffffffffffffffffffffffffffffffffff1673ffffffffffffffffffffffffffffffffffffffff16846007604051602401610da69190611ee5565b6040516020818303038152906040527f8270dc02000000000000000000000000000000000000000000000000000000007bffffffffffffffffffffffffffffffffffffffffffffffffffffffff19166020820180517bffffffffffffffffffffffffffffffffffffffffffffffffffffffff8381831617835250505050604051610e309190611f4e565b60006040518083038185875af1925050503d8060008114610e6d576040519150601f19603f3d011682016040523d82523d6000602084013e610e72565b606091505b5050905080610eb6576040517f08c379a0000000000000000000000000000000000000000000000000000000008152600401610ead90611fb1565b60405180910390fd5b50505050565b66038d7ea4c6800081565b60078054610ed490611c3e565b80601f0160208091040260200160405190810160405280929190818152602001828054610f0090611c3e565b8015610f4d5780601f10610f2257610100808354040283529160200191610f4d565b820191906000526020600020905b815481529060010190602001808311610f3057829003601f168201915b505050505081565b6000600160008473ffffffffffffffffffffffffffffffffffffffff1673ffffffffffffffffffffffffffffffffffffffff16815260200190815260200160002060008373ffffffffffffffffffffffffffffffffffffffff1673ffffffffffffffffffffffffffffffffffffffff16815260200190815260200160002054905092915050565b610fe4611205565b600073ffffffffffffffffffffffffffffffffffffffff168173ffffffffffffffffffffffffffffffffffffffff16036110565760006040517f1e4fbdf700000000000000000000000000000000000000000000000000000000815260040161104d9190611b30565b60405180910390fd5b61105f8161130e565b50565b600033905090565b6110778383836001611456565b505050565b60006110888484610f55565b90507fffffffffffffffffffffffffffffffffffffffffffffffffffffffffffffffff81101561110b57818110156110fb578281836040517ffb8f41b20000000000000000000000000000000000000000000000000000000081526004016110f29392919061218b565b60405180910390fd5b61110a84848484036000611456565b5b50505050565b600073ffffffffffffffffffffffffffffffffffffffff168373ffffffffffffffffffffffffffffffffffffffff16036111835760006040517f96c6fd1e00000000000000000000000000000000000000000000000000000000815260040161117a9190611b30565b60405180910390fd5b600073ffffffffffffffffffffffffffffffffffffffff168273ffffffffffffffffffffffffffffffffffffffff16036111f55760006040517fec442f050000000000000000000000000000000000000000000000000000000081526004016111ec9190611b30565b60405180910390fd5b61120083838361162d565b505050565b61120d611062565b73ffffffffffffffffffffffffffffffffffffffff1661122b610934565b73ffffffffffffffffffffffffffffffffffffffff161461128a5761124e611062565b6040517f118cdaa70000000000000000000000000000000000000000000000000000000081526004016112819190611b30565b60405180910390fd5b565b600073ffffffffffffffffffffffffffffffffffffffff168273ffffffffffffffffffffffffffffffffffffffff16036112fe5760006040517f96c6fd1e0000000000000000000000000000000000000000000000000000000081526004016112f59190611b30565b60405180910390fd5b61130a8260008361162d565b5050565b6000600560009054906101000a900473ffffffffffffffffffffffffffffffffffffffff16905081600560006101000a81548173ffffffffffffffffffffffffffffffffffffffff021916908373ffffffffffffffffffffffffffffffffffffffff1602179055508173ffffffffffffffffffffffffffffffffffffffff168173ffffffffffffffffffffffffffffffffffffffff167f8be0079c531659141344cd1fd0a4f28419497f9722a3daafe3b4186f6b6457e060405160405180910390a35050565b600073ffffffffffffffffffffffffffffffffffffffff168273ffffffffffffffffffffffffffffffffffffffff16036114465760006040517fec442f0500000000000000000000000000000000000000000000000000000000815260040161143d9190611b30565b60405180910390fd5b6114526000838361162d565b5050565b600073ffffffffffffffffffffffffffffffffffffffff168473ffffffffffffffffffffffffffffffffffffffff16036114c85760006040517fe602df050000000000000000000000000000000000000000000000000000000081526004016114bf9190611b30565b60405180910390fd5b600073ffffffffffffffffffffffffffffffffffffffff168373ffffffffffffffffffffffffffffffffffffffff160361153a5760006040517f94280d620000000000000000000000000000000000000000000000000000000081526004016115319190611b30565b60405180910390fd5b81600160008673ffffffffffffffffffffffffffffffffffffffff1673ffffffffffffffffffffffffffffffffffffffff16815260200190815260200160002060008573ffffffffffffffffffffffffffffffffffffffff1673ffffffffffffffffffffffffffffffffffffffff168152602001908152602001600020819055508015611627578273ffffffffffffffffffffffffffffffffffffffff168473ffffffffffffffffffffffffffffffffffffffff167f8c5be1e5ebec7d5bd14f71427d1e84f3dd0314c0f7b2291e5b200ac8c7c3b9258460405161161e919061186b565b60405180910390a35b50505050565b600073ffffffffffffffffffffffffffffffffffffffff168373ffffffffffffffffffffffffffffffffffffffff160361167f57806002600082825461167391906120eb565b92505081905550611752565b60008060008573ffffffffffffffffffffffffffffffffffffffff1673ffffffffffffffffffffffffffffffffffffffff1681526020019081526020016000205490508181101561170b578381836040517fe450d38c0000000000000000000000000000000000000000000000000000000081526004016117029392919061218b565b60405180910390fd5b8181036000808673ffffffffffffffffffffffffffffffffffffffff1673ffffffffffffffffffffffffffffffffffffffff16815260200190815260200160002081905550505b600073ffffffffffffffffffffffffffffffffffffffff168273ffffffffffffffffffffffffffffffffffffffff160361179b57806002600082825403925050819055506117e8565b806000808473ffffffffffffffffffffffffffffffffffffffff1673ffffffffffffffffffffffffffffffffffffffff168152602001908152602001600020600082825401925050819055505b8173ffffffffffffffffffffffffffffffffffffffff168373ffffffffffffffffffffffffffffffffffffffff167fddf252ad1be2c89b69c2b068fc378daa952ba7f163c4a11628f55a4df523b3ef83604051611845919061186b565b60405180910390a3505050565b6000819050919050565b61186581611852565b82525050565b6000602082019050611880600083018461185c565b92915050565b600081519050919050565b600082825260208201905092915050565b60005b838110156118c05780820151818401526020810190506118a5565b60008484015250505050565b6000601f19601f8301169050919050565b60006118e882611886565b6118f28185611891565b93506119028185602086016118a2565b61190b816118cc565b840191505092915050565b6000602082019050818103600083015261193081846118dd565b905092915050565b600080fd5b600073ffffffffffffffffffffffffffffffffffffffff82169050919050565b60006119688261193d565b9050919050565b6119788161195d565b811461198357600080fd5b50565b6000813590506119958161196f565b92915050565b6119a481611852565b81146119af57600080fd5b50565b6000813590506119c18161199b565b92915050565b600080604083850312156119de576119dd611938565b5b60006119ec85828601611986565b92505060206119fd858286016119b2565b9150509250929050565b60008115159050919050565b611a1c81611a07565b82525050565b6000602082019050611a376000830184611a13565b92915050565b600080600060608486031215611a5657611a55611938565b5b6000611a6486828701611986565b9350506020611a7586828701611986565b9250506040611a86868287016119b2565b9150509250925092565b600060ff82169050919050565b611aa681611a90565b82525050565b6000602082019050611ac16000830184611a9d565b92915050565b600060208284031215611add57611adc611938565b5b6000611aeb848285016119b2565b91505092915050565b600060208284031215611b0a57611b09611938565b5b6000611b1884828501611986565b91505092915050565b611b2a8161195d565b82525050565b6000602082019050611b456000830184611b21565b92915050565b600060e0820190508181036000830152611b65818a6118dd565b90508181036020830152611b7981896118dd565b9050611b88604083018861185c565b611b95606083018761185c565b611ba2608083018661185c565b81810360a0830152611bb481856118dd565b9050611bc360c083018461185c565b98975050505050505050565b60008060408385031215611be657611be5611938565b5b6000611bf485828601611986565b9250506020611c0585828601611986565b9150509250929050565b7f4e487b7100000000000000000000000000000000000000000000000000000000600052602260045260246000fd5b60006002820490506001821680611c5657607f821691505b602082108103611c6957611c68611c0f565b5b50919050565b7f596f75206d7573742073656c6c206174206c65617374203120746f6b656e0000600082015250565b6000611ca5601e83611891565b9150611cb082611c6f565b602082019050919050565b60006020820190508181036000830152611cd481611c98565b9050919050565b7f496e73756666696369656e742062616c616e6365000000000000000000000000600082015250565b6000611d11601483611891565b9150611d1c82611cdb565b602082019050919050565b60006020820190508181036000830152611d4081611d04565b9050919050565b7f4e487b7100000000000000000000000000000000000000000000000000000000600052601160045260246000fd5b6000611d8182611852565b9150611d8c83611852565b9250828202611d9a81611852565b91508282048414831517611db157611db0611d47565b5b5092915050565b7f4e487b7100000000000000000000000000000000000000000000000000000000600052601260045260246000fd5b6000611df282611852565b9150611dfd83611852565b925082611e0d57611e0c611db8565b5b828204905092915050565b6000611e2382611852565b9150611e2e83611852565b9250828203905081811115611e4657611e45611d47565b5b92915050565b60008190508160005260206000209050919050565b60008154611e6e81611c3e565b611e788186611891565b94506001821660008114611e935760018114611ea957611edc565b60ff198316865281151560200286019350611edc565b611eb285611e4c565b60005b83811015611ed457815481890152600182019150602081019050611eb5565b808801955050505b50505092915050565b60006020820190508181036000830152611eff8184611e61565b905092915050565b600081519050919050565b600081905092915050565b6000611f2882611f07565b611f328185611f12565b9350611f428185602086016118a2565b80840191505092915050565b6000611f5a8284611f1d565b915081905092915050565b7f466565207472616e73666572206661696c656400000000000000000000000000600082015250565b6000611f9b601383611891565b9150611fa682611f65565b602082019050919050565b60006020820190508181036000830152611fca81611f8e565b9050919050565b7f4661696c656420746f2066657463682061727469737420666565730000000000600082015250565b6000612007601b83611891565b915061201282611fd1565b602082019050919050565b6000602082019050818103600083015261203681611ffa565b9050919050565b60008151905061204c8161199b565b92915050565b60006020828403121561206857612067611938565b5b60006120768482850161203d565b91505092915050565b7f596f75206d7573742073656e6420424e4220746f2062757920746f6b656e7300600082015250565b60006120b5601f83611891565b91506120c08261207f565b602082019050919050565b600060208201905081810360008301526120e4816120a8565b9050919050565b60006120f682611852565b915061210183611852565b925082820190508082111561211957612118611d47565b5b92915050565b7f4d617820737570706c7920726561636865640000000000000000000000000000600082015250565b6000612155601283611891565b91506121608261211f565b602082019050919050565b6000602082019050818103600083015261218481612148565b9050919050565b60006060820190506121a06000830186611b21565b6121ad602083018561185c565b6121ba604083018461185c565b94935050505056fea264697066735822122037ded713cebc8952cec97ea3bc68d9cce0651c3fe7212c76d6661b30201055c064736f6c63430008140033a2646970667358221220d705ed55d005d02e843dd575b73b40a8b73b4a157bc883e7a1f1f850bd67af2f64736f6c63430008140033",
  "linkReferences": {},
  "deployedLinkReferences": {}
}