{
  "_format": "hh-sol-artifact-1",
  "contractName": "SpotifyArtistList",
  "sourceName": "contracts/SpotifyArtistList.sol",
  "abi": [
    {
      "inputs": [
        {
          "components": [
            {
              "internalType": "bytes32[]",
              "name": "merkleProof",
              "type": "bytes32[]"
            },
            {
              "components": [
                {
                  "internalType": "bytes32",
                  "name": "attestationType",
                  "type": "bytes32"
                },
                {
                  "internalType": "bytes32",
                  "name": "sourceId",
                  "type": "bytes32"
                },
                {
                  "internalType": "uint64",
                  "name": "votingRound",
                  "type": "uint64"
                },
                {
                  "internalType": "uint64",
                  "name": "lowestUsedTimestamp",
                  "type": "uint64"
                },
                {
                  "components": [
                    {
                      "internalType": "string",
                      "name": "url",
                      "type": "string"
                    },
                    {
                      "internalType": "string",
                      "name": "postprocessJq",
                      "type": "string"
                    },
                    {
                      "internalType": "string",
                      "name": "abi_signature",
                      "type": "string"
                    }
                  ],
                  "internalType": "struct IJsonApi.RequestBody",
                  "name": "requestBody",
                  "type": "tuple"
                },
                {
                  "components": [
                    {
                      "internalType": "bytes",
                      "name": "abi_encoded_data",
                      "type": "bytes"
                    }
                  ],
                  "internalType": "struct IJsonApi.ResponseBody",
                  "name": "responseBody",
                  "type": "tuple"
                }
              ],
              "internalType": "struct IJsonApi.Response",
              "name": "data",
              "type": "tuple"
            }
          ],
          "internalType": "struct IJsonApi.Proof",
          "name": "data",
          "type": "tuple"
        }
      ],
      "name": "addArtist",
      "outputs": [],
      "stateMutability": "nonpayable",
      "type": "function"
    },
    {
      "inputs": [
        {
          "internalType": "uint256",
          "name": "",
          "type": "uint256"
        }
      ],
      "name": "artistIds",
      "outputs": [
        {
          "internalType": "string",
          "name": "",
          "type": "string"
        }
      ],
      "stateMutability": "view",
      "type": "function"
    },
    {
      "inputs": [
        {
          "internalType": "string",
          "name": "",
          "type": "string"
        }
      ],
      "name": "artists",
      "outputs": [
        {
          "internalType": "string",
          "name": "name",
          "type": "string"
        },
        {
          "internalType": "string",
          "name": "imageUrl",
          "type": "string"
        },
        {
          "internalType": "string",
          "name": "bio",
          "type": "string"
        }
      ],
      "stateMutability": "view",
      "type": "function"
    },
    {
      "inputs": [
        {
          "components": [
            {
              "internalType": "string",
              "name": "name",
              "type": "string"
            },
            {
              "internalType": "string",
              "name": "imageUrl",
              "type": "string"
            },
            {
              "internalType": "string",
              "name": "artistId",
              "type": "string"
            },
            {
              "internalType": "string",
              "name": "bio",
              "type": "string"
            }
          ],
          "internalType": "struct DataTransportObject",
          "name": "x",
          "type": "tuple"
        }
      ],
      "name": "empty",
      "outputs": [],
      "stateMutability": "nonpayable",
      "type": "function"
    },
    {
      "inputs": [],
      "name": "getAllArtists",
      "outputs": [
        {
          "components": [
            {
              "internalType": "string",
              "name": "name",
              "type": "string"
            },
            {
              "internalType": "string",
              "name": "imageUrl",
              "type": "string"
            },
            {
              "internalType": "string",
              "name": "bio",
              "type": "string"
            }
          ],
          "internalType": "struct SpotifyArtist[]",
          "name": "",
          "type": "tuple[]"
        }
      ],
      "stateMutability": "view",
      "type": "function"
    },
    {
      "inputs": [],
      "name": "getFdcHub",
      "outputs": [
        {
          "internalType": "address",
          "name": "",
          "type": "address"
        }
      ],
      "stateMutability": "view",
      "type": "function"
    },
    {
      "inputs": [
        {
          "components": [
            {
              "internalType": "bytes32[]",
              "name": "merkleProof",
              "type": "bytes32[]"
            },
            {
              "components": [
                {
                  "internalType": "bytes32",
                  "name": "attestationType",
                  "type": "bytes32"
                },
                {
                  "internalType": "bytes32",
                  "name": "sourceId",
                  "type": "bytes32"
                },
                {
                  "internalType": "uint64",
                  "name": "votingRound",
                  "type": "uint64"
                },
                {
                  "internalType": "uint64",
                  "name": "lowestUsedTimestamp",
                  "type": "uint64"
                },
                {
                  "components": [
                    {
                      "internalType": "string",
                      "name": "url",
                      "type": "string"
                    },
                    {
                      "internalType": "string",
                      "name": "postprocessJq",
                      "type": "string"
                    },
                    {
                      "internalType": "string",
                      "name": "abi_signature",
                      "type": "string"
                    }
                  ],
                  "internalType": "struct IJsonApi.RequestBody",
                  "name": "requestBody",
                  "type": "tuple"
                },
                {
                  "components": [
                    {
                      "internalType": "bytes",
                      "name": "abi_encoded_data",
                      "type": "bytes"
                    }
                  ],
                  "internalType": "struct IJsonApi.ResponseBody",
                  "name": "responseBody",
                  "type": "tuple"
                }
              ],
              "internalType": "struct IJsonApi.Response",
              "name": "data",
              "type": "tuple"
            }
          ],
          "internalType": "struct IJsonApi.Proof",
          "name": "_proof",
          "type": "tuple"
        }
      ],
      "name": "isJsonApiProofValid",
      "outputs": [
        {
          "internalType": "bool",
          "name": "",
          "type": "bool"
        }
      ],
      "stateMutability": "view",
      "type": "function"
    }
  ],
  "bytecode": "0x608060405234801561001057600080fd5b50611d18806100206000396000f3fe608060405234801561001057600080fd5b506004361061007d5760003560e01c80639d6df0511161005b5780639d6df05114610100578063accc1ee214610130578063b8f4ba1b1461014c578063f803ace31461016a5761007d565b8063158b979c1461008257806340462b951461009e5780636b9b94ac146100ce575b600080fd5b61009c600480360381019061009791906109d2565b610188565b005b6100b860048036038101906100b39190610a51565b61018b565b6040516100c59190610b0e565b60405180910390f35b6100e860048036038101906100e39190610c65565b610237565b6040516100f793929190610cae565b60405180910390f35b61011a60048036038101906101159190610d19565b61040f565b6040516101279190610d7d565b60405180910390f35b61014a60048036038101906101459190610d19565b610499565b005b6101546105f1565b6040516101619190610dd9565b60405180910390f35b610172610600565b60405161017f9190610f5e565b60405180910390f35b50565b6001818154811061019b57600080fd5b9060005260206000200160009150905080546101b690610faf565b80601f01602080910402602001604051908101604052809291908181526020018280546101e290610faf565b801561022f5780601f106102045761010080835404028352916020019161022f565b820191906000526020600020905b81548152906001019060200180831161021257829003601f168201915b505050505081565b60008180516020810182018051848252602083016020850120818352809550505050505060009150905080600001805461027090610faf565b80601f016020809104026020016040519081016040528092919081815260200182805461029c90610faf565b80156102e95780601f106102be576101008083540402835291602001916102e9565b820191906000526020600020905b8154815290600101906020018083116102cc57829003601f168201915b5050505050908060010180546102fe90610faf565b80601f016020809104026020016040519081016040528092919081815260200182805461032a90610faf565b80156103775780601f1061034c57610100808354040283529160200191610377565b820191906000526020600020905b81548152906001019060200180831161035a57829003601f168201915b50505050509080600201805461038c90610faf565b80601f01602080910402602001604051908101604052809291908181526020018280546103b890610faf565b80156104055780601f106103da57610100808354040283529160200191610405565b820191906000526020600020905b8154815290600101906020018083116103e857829003601f168201915b5050505050905083565b60006104196108a4565b73ffffffffffffffffffffffffffffffffffffffff1663d0f18f85836040518263ffffffff1660e01b815260040161045191906114fe565b602060405180830381865afa15801561046e573d6000803e3d6000fd5b505050506040513d601f19601f82011682018060405250810190610492919061154c565b9050919050565b6104a28161040f565b6104e1576040517f08c379a00000000000000000000000000000000000000000000000000000000081526004016104d8906115c5565b60405180910390fd5b60008180602001906104f391906115f4565b8060a00190610502919061161c565b80600001906105119190611644565b81019061051e9190611799565b9050600060405180606001604052808360000151815260200183602001518152602001836060015181525090508060008360400151604051610560919061181e565b9081526020016040518091039020600082015181600001908161058391906119e1565b50602082015181600101908161059991906119e1565b5060408201518160020190816105af91906119e1565b50905050600182604001519080600181540180825580915050600190039060005260206000200160009091909190915090816105eb91906119e1565b50505050565b60006105fb6108c0565b905090565b6060600060018054905067ffffffffffffffff81111561062357610622610b3a565b5b60405190808252806020026020018201604052801561065c57816020015b610649610979565b8152602001906001900390816106415790505b50905060005b60018054905081101561089c5760006001828154811061068557610684611ab3565b5b9060005260206000200160405161069c9190611b65565b90815260200160405180910390206040518060600160405290816000820180546106c590610faf565b80601f01602080910402602001604051908101604052809291908181526020018280546106f190610faf565b801561073e5780601f106107135761010080835404028352916020019161073e565b820191906000526020600020905b81548152906001019060200180831161072157829003601f168201915b5050505050815260200160018201805461075790610faf565b80601f016020809104026020016040519081016040528092919081815260200182805461078390610faf565b80156107d05780601f106107a5576101008083540402835291602001916107d0565b820191906000526020600020905b8154815290600101906020018083116107b357829003601f168201915b505050505081526020016002820180546107e990610faf565b80601f016020809104026020016040519081016040528092919081815260200182805461081590610faf565b80156108625780601f1061083757610100808354040283529160200191610862565b820191906000526020600020905b81548152906001019060200180831161084557829003601f168201915b50505050508152505082828151811061087e5761087d611ab3565b5b6020026020010181905250808061089490611bab565b915050610662565b508091505090565b60007307ad8508c9173dc845817472ca0484035abfa3c8905090565b600073ad67fe66660fb8dfe9d6b1b4240d8650e30f601973ffffffffffffffffffffffffffffffffffffffff1663159354a260405160200161090190611c3f565b604051602081830303815290604052805190602001206040518263ffffffff1660e01b81526004016109339190611c6e565b602060405180830381865afa158015610950573d6000803e3d6000fd5b505050506040513d601f19601f820116820180604052508101906109749190611cb5565b905090565b60405180606001604052806060815260200160608152602001606081525090565b6000604051905090565b600080fd5b600080fd5b600080fd5b6000608082840312156109c9576109c86109ae565b5b81905092915050565b6000602082840312156109e8576109e76109a4565b5b600082013567ffffffffffffffff811115610a0657610a056109a9565b5b610a12848285016109b3565b91505092915050565b6000819050919050565b610a2e81610a1b565b8114610a3957600080fd5b50565b600081359050610a4b81610a25565b92915050565b600060208284031215610a6757610a666109a4565b5b6000610a7584828501610a3c565b91505092915050565b600081519050919050565b600082825260208201905092915050565b60005b83811015610ab8578082015181840152602081019050610a9d565b60008484015250505050565b6000601f19601f8301169050919050565b6000610ae082610a7e565b610aea8185610a89565b9350610afa818560208601610a9a565b610b0381610ac4565b840191505092915050565b60006020820190508181036000830152610b288184610ad5565b905092915050565b600080fd5b600080fd5b7f4e487b7100000000000000000000000000000000000000000000000000000000600052604160045260246000fd5b610b7282610ac4565b810181811067ffffffffffffffff82111715610b9157610b90610b3a565b5b80604052505050565b6000610ba461099a565b9050610bb08282610b69565b919050565b600067ffffffffffffffff821115610bd057610bcf610b3a565b5b610bd982610ac4565b9050602081019050919050565b82818337600083830152505050565b6000610c08610c0384610bb5565b610b9a565b905082815260208101848484011115610c2457610c23610b35565b5b610c2f848285610be6565b509392505050565b600082601f830112610c4c57610c4b610b30565b5b8135610c5c848260208601610bf5565b91505092915050565b600060208284031215610c7b57610c7a6109a4565b5b600082013567ffffffffffffffff811115610c9957610c986109a9565b5b610ca584828501610c37565b91505092915050565b60006060820190508181036000830152610cc88186610ad5565b90508181036020830152610cdc8185610ad5565b90508181036040830152610cf08184610ad5565b9050949350505050565b600060408284031215610d1057610d0f6109ae565b5b81905092915050565b600060208284031215610d2f57610d2e6109a4565b5b600082013567ffffffffffffffff811115610d4d57610d4c6109a9565b5b610d5984828501610cfa565b91505092915050565b60008115159050919050565b610d7781610d62565b82525050565b6000602082019050610d926000830184610d6e565b92915050565b600073ffffffffffffffffffffffffffffffffffffffff82169050919050565b6000610dc382610d98565b9050919050565b610dd381610db8565b82525050565b6000602082019050610dee6000830184610dca565b92915050565b600081519050919050565b600082825260208201905092915050565b6000819050602082019050919050565b600082825260208201905092915050565b6000610e3c82610a7e565b610e468185610e20565b9350610e56818560208601610a9a565b610e5f81610ac4565b840191505092915050565b60006060830160008301518482036000860152610e878282610e31565b91505060208301518482036020860152610ea18282610e31565b91505060408301518482036040860152610ebb8282610e31565b9150508091505092915050565b6000610ed48383610e6a565b905092915050565b6000602082019050919050565b6000610ef482610df4565b610efe8185610dff565b935083602082028501610f1085610e10565b8060005b85811015610f4c5784840389528151610f2d8582610ec8565b9450610f3883610edc565b925060208a01995050600181019050610f14565b50829750879550505050505092915050565b60006020820190508181036000830152610f788184610ee9565b905092915050565b7f4e487b7100000000000000000000000000000000000000000000000000000000600052602260045260246000fd5b60006002820490506001821680610fc757607f821691505b602082108103610fda57610fd9610f80565b5b50919050565b600080fd5b600080fd5b600080fd5b6000808335600160200384360303811261100c5761100b610fea565b5b83810192508235915060208301925067ffffffffffffffff82111561103457611033610fe0565b5b60208202360383131561104a57611049610fe5565b5b509250929050565b600082825260208201905092915050565b600080fd5b82818337505050565b600061107d8385611052565b93507f07ffffffffffffffffffffffffffffffffffffffffffffffffffffffffffffff8311156110b0576110af611063565b5b6020830292506110c1838584611068565b82840190509392505050565b60008235600160c0038336030381126110e9576110e8610fea565b5b82810191505092915050565b6000819050919050565b611108816110f5565b811461111357600080fd5b50565b600081359050611125816110ff565b92915050565b600061113a6020840184611116565b905092915050565b61114b816110f5565b82525050565b600067ffffffffffffffff82169050919050565b61116e81611151565b811461117957600080fd5b50565b60008135905061118b81611165565b92915050565b60006111a0602084018461117c565b905092915050565b6111b181611151565b82525050565b6000823560016060038336030381126111d3576111d2610fea565b5b82810191505092915050565b600080833560016020038436030381126111fc576111fb610fea565b5b83810192508235915060208301925067ffffffffffffffff82111561122457611223610fe0565b5b60018202360383131561123a57611239610fe5565b5b509250929050565b600061124e8385610e20565b935061125b838584610be6565b61126483610ac4565b840190509392505050565b60006060830161128260008401846111df565b8583036000870152611295838284611242565b925050506112a660208401846111df565b85830360208701526112b9838284611242565b925050506112ca60408401846111df565b85830360408701526112dd838284611242565b925050508091505092915050565b60008235600160200383360303811261130757611306610fea565b5b82810191505092915050565b600080833560016020038436030381126113305761132f610fea565b5b83810192508235915060208301925067ffffffffffffffff82111561135857611357610fe0565b5b60018202360383131561136e5761136d610fe5565b5b509250929050565b600082825260208201905092915050565b60006113938385611376565b93506113a0838584610be6565b6113a983610ac4565b840190509392505050565b6000602083016113c76000840184611313565b85830360008701526113da838284611387565b925050508091505092915050565b600060c083016113fb600084018461112b565b6114086000860182611142565b50611416602084018461112b565b6114236020860182611142565b506114316040840184611191565b61143e60408601826111a8565b5061144c6060840184611191565b61145960608601826111a8565b5061146760808401846111b7565b8482036080860152611479828261126f565b91505061148960a08401846112eb565b84820360a086015261149b82826113b4565b9150508091505092915050565b6000604083016114bb6000840184610fef565b85830360008701526114ce838284611071565b925050506114df60208401846110cd565b84820360208601526114f182826113e8565b9150508091505092915050565b6000602082019050818103600083015261151881846114a8565b905092915050565b61152981610d62565b811461153457600080fd5b50565b60008151905061154681611520565b92915050565b600060208284031215611562576115616109a4565b5b600061157084828501611537565b91505092915050565b7f496e76616c69642070726f6f6600000000000000000000000000000000000000600082015250565b60006115af600d83610a89565b91506115ba82611579565b602082019050919050565b600060208201905081810360008301526115de816115a2565b9050919050565b600080fd5b600080fd5b600080fd5b60008235600160c0038336030381126116105761160f6115e5565b5b80830191505092915050565b600082356001602003833603038112611638576116376115e5565b5b80830191505092915050565b60008083356001602003843603038112611661576116606115e5565b5b80840192508235915067ffffffffffffffff821115611683576116826115ea565b5b60208301925060018202360383131561169f5761169e6115ef565b5b509250929050565b600080fd5b600080fd5b6000608082840312156116c7576116c66116a7565b5b6116d16080610b9a565b9050600082013567ffffffffffffffff8111156116f1576116f06116ac565b5b6116fd84828501610c37565b600083015250602082013567ffffffffffffffff811115611721576117206116ac565b5b61172d84828501610c37565b602083015250604082013567ffffffffffffffff811115611751576117506116ac565b5b61175d84828501610c37565b604083015250606082013567ffffffffffffffff811115611781576117806116ac565b5b61178d84828501610c37565b60608301525092915050565b6000602082840312156117af576117ae6109a4565b5b600082013567ffffffffffffffff8111156117cd576117cc6109a9565b5b6117d9848285016116b1565b91505092915050565b600081905092915050565b60006117f882610a7e565b61180281856117e2565b9350611812818560208601610a9a565b80840191505092915050565b600061182a82846117ed565b915081905092915050565b60008190508160005260206000209050919050565b60006020601f8301049050919050565b600082821b905092915050565b6000600883026118977fffffffffffffffffffffffffffffffffffffffffffffffffffffffffffffffff8261185a565b6118a1868361185a565b95508019841693508086168417925050509392505050565b6000819050919050565b60006118de6118d96118d484610a1b565b6118b9565b610a1b565b9050919050565b6000819050919050565b6118f8836118c3565b61190c611904826118e5565b848454611867565b825550505050565b600090565b611921611914565b61192c8184846118ef565b505050565b5b8181101561195057611945600082611919565b600181019050611932565b5050565b601f8211156119955761196681611835565b61196f8461184a565b8101602085101561197e578190505b61199261198a8561184a565b830182611931565b50505b505050565b600082821c905092915050565b60006119b86000198460080261199a565b1980831691505092915050565b60006119d183836119a7565b9150826002028217905092915050565b6119ea82610a7e565b67ffffffffffffffff811115611a0357611a02610b3a565b5b611a0d8254610faf565b611a18828285611954565b600060209050601f831160018114611a4b5760008415611a39578287015190505b611a4385826119c5565b865550611aab565b601f198416611a5986611835565b60005b82811015611a8157848901518255600182019150602085019450602081019050611a5c565b86831015611a9e5784890151611a9a601f8916826119a7565b8355505b6001600288020188555050505b505050505050565b7f4e487b7100000000000000000000000000000000000000000000000000000000600052603260045260246000fd5b60008154611aef81610faf565b611af981866117e2565b94506001821660008114611b145760018114611b2957611b5c565b60ff1983168652811515820286019350611b5c565b611b3285611835565b60005b83811015611b5457815481890152600182019150602081019050611b35565b838801955050505b50505092915050565b6000611b718284611ae2565b915081905092915050565b7f4e487b7100000000000000000000000000000000000000000000000000000000600052601160045260246000fd5b6000611bb682610a1b565b91507fffffffffffffffffffffffffffffffffffffffffffffffffffffffffffffffff8203611be857611be7611b7c565b5b600182019050919050565b7f4664634875620000000000000000000000000000000000000000000000000000600082015250565b6000611c29600683610a89565b9150611c3482611bf3565b602082019050919050565b60006020820190508181036000830152611c5881611c1c565b9050919050565b611c68816110f5565b82525050565b6000602082019050611c836000830184611c5f565b92915050565b611c9281610db8565b8114611c9d57600080fd5b50565b600081519050611caf81611c89565b92915050565b600060208284031215611ccb57611cca6109a4565b5b6000611cd984828501611ca0565b9150509291505056fea2646970667358221220278d2fc10304c5c555b3305ca52e8758ac155db04e69cf498d6194cf2ebe707764736f6c63430008140033",
  "linkReferences": {},
  "deployedLinkReferences": {}
}